:020000040800F2
:10000000600400209D010008FD0C0008F50C0008AC
:10001000F90C0008B5020008090E000800000000F5
:10002000000000000000000000000000050D0008B6
:10003000B902000800000000010D0008090D0008C9
:10004000B7010008B7010008B7010008B7010008B0
:10005000B7010008B7010008B7010008B7010008A0
:10006000B7010008B7010008B7010008B701000890
:10007000B7010008B7010008B7010008B701000880
:10008000B7010008B7010008B7010008B701000870
:10009000B7010008B7010008B7010008B701000860
:1000A000B7010008B7010008B7010008B701000850
:1000B000B7010008B7010008B7010008B701000840
:1000C000B7010008B7010008B7010008B701000830
:1000D000B7010008B7010008B7010008B701000820
:1000E000B7010008B7010008B7010008B701000810
:1000F000B7010008B7010008B7010008B701000800
:10010000B7010008B7010008B7010008B7010008EF
:10011000B7010008B7010008B7010008B7010008DF
:10012000B7010008B7010008B7010008B7010008CF
:10013000B7010008B7010008B7010008B7010008BF
:10014000B7010008B7010008B7010008B7010008AF
:10015000B7010008B7010008B7010008B70100089F
:10016000B7010008B7010008B7010008B70100088F
:10017000B7010008B7010008B7010008000000003F
:10018000B7010008B7010008DFF80CD000F07AF8DA
:10019000004800470D0E0008600400200648804714
:1001A00006480047FEE7FEE7FEE7FEE7FEE7FEE75C
:1001B000FEE7FEE7FEE7FEE70D0D000889010008F7
:1001C0002DE9F05F0546002092469B46884606468C
:1001D000814640241BE0284641464746224600F01F
:1001E00041F853465A46C01A914110D31146184659
:1001F000224600F028F82D1A67EB01084F462246E8
:100200000120002100F01FF817EB00094E41201ECD
:10021000A4F10104DFDC484631462A464346BDE8E6
:10022000F09FD2B201E000F8012B491EFBD27047CB
:100230000022F6E710B513460A4604461946FFF7B2
:10024000F0FF204610BD202A04DB203A00FA02F11C
:10025000002070479140C2F1200320FA03F31943B4
:1002600090407047202A04DB203A21FA02F0002156
:10027000704721FA02F3D040C2F1200291400843B6
:10028000194670471CB50948009009480190054679
:10029000009C06E0E06840F0010394E807009847FE
:1002A0001034AC42F6D3FFF773FF0000BC0F000818
:1002B000DC0F0008FEE7000070470000B0B5044600
:1002C00000F0E6F8054640F20400C2F200000078B3
:1002D000611C18BF044400BF00F0DAF8401BA042C4
:1002E000FAD3B0BD2DE9F04F83B000F1200200F148
:1002F0003E4741F60045009207F1FF77C4F2020540
:1003000008224FEAB726A84208BF072200254FF06F
:1003100000084FF00009072E38BF4FEAB7220192BC
:100320000AE000BF09F1010908F10208B9F1100F54
:1003300005F1040500F0A2800F68012202FA09FE0F
:1003400017EA0E0AEED0D1F804C003220CF003071E
:100350007E1E02FA08F4012E6FEA040B12D884689C
:10036000CE6804EA0B0406FA08F634438460446855
:1003700024EA0E06CCF3001404FA09F4264346607E
:1003800004E000BF032F01D103271EE0C6688C687C
:1003900006EA0B0604FA08F42643022FC66014D1BD
:1003A0006FF00302009E02EA590756F807C005F0F5
:1003B0001C040F220B69A2402CEA0202A3401A433C
:1003C000F251D1F804C00CF00307026807FA08F3F1
:1003D00002EA0B021A431CF4403F0260A2D0002242
:1003E00043F644030292C4F202031A6843F600443F
:1003F00042F480421A601A68C4F2010402F4804296
:100400000292029A29F003024FF6084C2244CFF6DA
:10041000FF7C52F80C3005F00C070F26BE40B343AA
:10042000019E06FA07F73B4342F80C30A2684B687E
:1004300042EA0A0743F60C4CDE0258BF22EA0A07DA
:10044000A760C4F2010CDCF800209E0242EA0A0711
:1004500058BF22EA0A07CCF8007062689E0342EA9D
:100460000A0758BF22EA0A0767602268DB0342EAEC
:100470000A0758BF22EA0A07276053E703B0BDE81E
:10048000F08F0000002A08BF090481617047000056
:1004900040F25800C2F200000068704740F20400C9
:1004A00040F25801C2F20000C2F2000100780A686E
:1004B000104408607047000080B543F60040C4F265
:1004C0000200016841F400710160016841F480613B
:1004D0000160016841F480710160032000F074F84C
:1004E0000F2000F005F800F027F8002080BD000084
:1004F00070B540F20406C2F2000640F20C013278F8
:10050000C2F200014FF47A730968B3FBF2F20446B9
:10051000B1FBF2F1084600F04FFB0F2C4FF0010544
:1005200008D838B94FF0FF3021460022002500F0EE
:100530001FF87460284670BD82B0002043F6400169
:100540000190C4F202014A6842F480424A604A685B
:1005500002F480420192019A0090086840F08050B5
:100560000860086800F080500090009802B0704762
:1005700010B54EF60C5CCEF2000CDCF80030C3F384
:10058000022E8EF00704042C28BF0424BEF10303BE
:100590004FF0FF3E0EFA04F438BF0023A143994008
:1005A0000EFA03F39A43114300F00F0200F1604387
:1005B0000901043A03F564436244002848BF02F18C
:1005C0000C03197010BD00004EF60C51CEF2000164
:1005D0000A684FF6FF031A4060F30A2242F0806077
:1005E00040F0FD7008607047002804BF012070478C
:1005F0002DE9F04143F60808C4F202080446D8F891
:10060000F8030D4600F00700814207D988F8F85337
:10061000D8F8F80300F00700A84277D120688107D6
:1006200017D5410705D5D8F8001041F4E051C8F8B6
:100630000010010705D5D8F8001041F46041C8F852
:100640000010D8F80010A26821F0F0011143C8F89A
:100650000010C00740D1D8F8F80300F00700854229
:1006600007D288F8F853D8F8F80300F00700A8423A
:100670004CD12068410707D5D8F80010E26821F472
:10068000E0511143C8F80010000708D5D8F8000061
:10069000216920F4604040EAC100C8F8000000F081
:1006A0007DF8D8F8001040F6A472C1F30311C0F62B
:1006B0000002515C40F20C0220FA01F140F2080005
:1006C000C2F200000068C2F200021160FFF710FFE2
:1006D0000020BDE8F08100BF6068811E022907D2BA
:1006E00058F8081C89015CBF0120BDE8F08111E0C9
:1006F000012807D158F8081C89035CBF0120BDE818
:10070000F08107E058F8081C890703D40120BDE8F0
:10071000F08100BFD8F8001021F003010843C8F8A9
:100720000000FFF7B5FE064641F28837D8F8000012
:10073000616800F00C00B0EB810F8CD0FFF7A8FED1
:10074000801BB842F2D90320BDE8F08140F20C00D2
:1007500043F60801C2F20000C4F202010068096811
:1007600040F6B472C1F38221C0F60002515CC84069
:100770007047000040F20C0043F60801C2F200008E
:10078000C4F202010068096840F6B472C1F3423154
:10079000C0F60002515CC8407047000010B543F637
:1007A0000404C4F202046168C1F3810142F2004012
:1007B000C0F2F400DFE801F002040A0210BD00BF3D
:1007C00047F64000C0F27D1010BD00BF20682168D0
:1007D0002368490247F64001C0F27D1100F03F0254
:1007E000C3F388105CBF42F20041C0F2F401A1FBE8
:1007F00000010023FFF7E4FC21680222C1F301415C
:1008000002EB4101B0FBF1F010BD0000002804BF75
:10081000012070472DE9F04182B00446007843F68C
:100820000006C007C4F202060CD0B06800F00C004D
:10083000042840F081803068800303D56068002878
:1008400000F06881207880071BD5B06810F00C0F8D
:1008500009D0B06800F00C00082840F0878070686C
:10086000400200F183803068800703D5E0680128EA
:1008700040F050813068216920F0F80040EAC10062
:1008800030602078000713D4207840072AD4A56967
:10089000002D00F03A81B06800F00C00082840F00C
:1008A000A580012D40F00E81012002B0BDE8F0814D
:1008B0006069002800F082800020C4F247200121F6
:1008C000C0F8801EFFF7E4FD054600BF706F80078B
:1008D000DAD4FFF7DDFD401B0228F7D9032002B070
:1008E000BDE8F081306C5FEAC0080AD400200190B6
:1008F000306C40F080503064306C00F080500190DB
:10090000019847F20007C4F200073868C00547D4D1
:10091000386840F480703860FFF7BAFD054600BFC4
:100920003868C0053CD4FFF7B3FD401B0228F7D957
:10093000032002B0BDE8F081B06800F00C00082888
:1009400003D1706840023FF576AF61683068B1F559
:10095000803F07D0B1F5A02F40F09A8040F480206E
:100960003060306840F4803030609AE0E068002801
:1009700040F20000C4F247205CD001210160FFF783
:1009800087FD0546306880073FF574AFFFF780FDAF
:10099000401B0228F6D9032002B0BDE8F08100BF59
:1009A000A168306F012905D0052955D140F0040018
:1009B0003067306F40F00100306756E00020C4F22D
:1009C00047200021C0F8801EFFF762FD054600BFEA
:1009D000706F80077FF558AFFFF75AFD401B022864
:1009E000F6D9032002B0BDE8F08100BF0027C4F2B1
:1009F000472700203866FFF74BFD022D05460DD135
:100A00003068800140F18A80FFF742FD401B0228D8
:100A10004FF00300F4D902B0BDE8F08130688001E6
:100A200073D5FFF735FD401B02284FF00300F5D9C1
:100A3000F1E700BF00210160FFF72AFD054600BF76
:100A4000306880077FF51DAFFFF722FD401B0228AD
:100A50004FF00300F4D9DEE720F001003067306F7B
:100A6000002920F0040030677AD0FFF711FD054619
:100A700041F28837306F800700F18480FFF708FD6E
:100A8000401BB842F6D9032002B0BDE8F08100BF98
:100A900020F4803030603068002920F480203060FD
:100AA0007AD0FFF7F5FC0546306880033FF5CAAE03
:100AB000FFF7EEFC401B6428F6D9032002B0BDE826
:100AC000F08100BF7068E16900F480028A4221D1A0
:100AD000216A00F03F028A421CD147F6C071626A67
:100AE0000140B1EB821F15D1A16A4FF6FF73C90314
:100AF000994300F44032A1F580318A420AD1E16A7B
:100B000000F07060B0EB016F04D1002002B0BDE8CE
:100B1000F08100BF012002B0BDE8F08104F11C05A6
:100B20002FCD084340EA8210D9034FF6FF7291435C
:100B3000A1F5803140EA0560084370600120386605
:100B4000FFF7A6FC044600BF30688001DDD4FFF744
:100B50009FFC001B02284FF00300F5D95BE700BFA4
:100B6000FFF796FC054641F2883700BF306F8007DB
:100B700008D5FFF78DFC401BB8424FF00300F5D9B4
:100B800049E700BFB8F1000F3FF581AE306C20F0AF
:100B9000805030647BE600BFFFF77AFC054600BF5B
:100BA000306880037FF54EAEFFF772FC401B64286F
:100BB0004FF00300F4D92EE7411E0020B0EB116F77
:100BC0001CBF012070474EF21002CEF200025160AD
:100BD0004EF62351CEF20001F0230B7007219060F6
:100BE00011607047002804BF0120704710B504460B
:100BF00090F8410028B9002084F84000204600F019
:100C000021F8242084F841002068C16821F40051B3
:100C1000C160204600F084F82068016921F4904109
:100C20000161416921F02A014161C16841F400512B
:100C3000C16000202021606484F8411084F84210D3
:100C4000606310BD2DE9F04387B045F200050068F0
:100C5000C4F200050026A8420696CDE90466039674
:100C6000029603D007B0BDE8F08300BF43F6300022
:100C70000196C4F20200016902AC41F480110161E5
:100C800001694FF0020801F4801101910199019668
:100C900001684FF0030941F0040101600168082771
:100CA00001F00401019101990196016841F00801E8
:100CB00001600068214600F00800019001984FF49F
:100CC0008050029005F5DC30CDE90386CDF8149014
:100CD0000697FFF707FB0420CDE9020805F5DE3093
:100CE0002146CDE904690697FFF7FCFA07B0BDE895
:100CF000F0830000FEE70000FEE70000FEE70000D2
:100D00007047000070470000FFF7C8BB4EF68850E0
:100D1000CEF20000016841F47001016070470000EC
:100D2000B0B50446006804F108030ECB0569194309
:100D300025F440552A4302616269E3691143C268A0
:100D4000194349F20C639A431143C1604169A26996
:100D500021F4407141F20043114340F48062C4F237
:100D600001039A42416103D1FFF704FD02E000BF95
:100D7000FFF7ECFCE1694FF69C7563681922C0F639
:100D8000FF75B1F5004FA0FB02011FD15A00DB0F28
:100D9000FFF716FA48F21F51C5F2EB11A0FB012331
:100DA0005A0905F1805302FB0300322303EBC00014
:100DB000A0FB01014FF4F87000EA111000EB0210E3
:100DC000C1F34211084421688860B0BD9A009B0FAE
:100DD000FFF7F6F948F21F51C5F2EB11A0FB012312
:100DE0005A0902FB0500322303EB0010A0FB0101AE
:100DF000F02000EA511000EB0210C1F34311084447
:100E000021688860B0BD0000FEE7000092B043F6A4
:100E1000300647F20005C4F20206C4F20005FFF7EF
:100E20004BFB06AC20463021FFF702FA002705975E
:100E3000CDE90377CDE901770097306940F0805024
:100E40003061306900F08050009000980097286869
:100E500040F480402860286800F4804000900098AA
:100E6000022006900120099010200A9020460C973D
:100E7000FFF7CCFC10B172B6FEE700BF0F20CDE942
:100E8000010701A80021CDE903770597FFF7ACFB27
:100E900010B172B6FEE700BF00210691306845F23E
:100EA000000240F0010030603068C4F2000200F03F
:100EB000010006900698069130684FF4E13340F047
:100EC0000400306030680C2700F00400069006989B
:100ED0000691306840F008003060306800F008008B
:100EE0000690069840F21000C2F20000C0E900230C
:100EF000C0E90211C0E90417C0E90611FFF772FE4C
:100F000010B172B6FEE700BF05F5CE3407A500BFED
:100F100020464FF480510122FFF7B4FA284600F032
:100F20002FF84FF47A70FFF7C9F9F1E753544D33B6
:100F300032205265706F727465723A2053797374FF
:100F4000656D20737461747573204F4B21200D0003
:100F500002E008C8121F08C1002AFAD17047704782
:100F6000002001E001C1121F002AFBD1704738B5F3
:100F700004468DF8000069460320ABBE204638BD0C
:100F800010B5044601E0FFF7F2FF14F8010B044925
:100F90000028F8D1BDE810400A20FFF7E8BF0000A4
:100FA0000000002000000000000000000102030417
:100FB000060708090000000001020304E00F000812
:100FC0000000002010000000500F0008F00F000883
:100FD0001000002050040000600F00080000000016
:100FE0000000000001000000100000000024F400D8
:040000050800018965
:00000001FF
