:020000040800F2
:10000000A80400209D010008251400081D14000804
:1000100021140008E102000831150008000000006A
:100020000000000000000000000000002D14000887
:10003000E50200080000000029140008311400083F
:10004000B7010008B7010008B7010008B7010008B0
:10005000B7010008B7010008B7010008B7010008A0
:10006000B7010008B7010008B7010008B701000890
:10007000B7010008B7010008B7010008B701000880
:10008000B7010008B7010008B7010008B701000870
:10009000B7010008B7010008B7010008B701000860
:1000A000B7010008B7010008B7010008B701000850
:1000B000B7010008B7010008B7010008B701000840
:1000C000B7010008B7010008B7010008B701000830
:1000D000B7010008B7010008B7010008B701000820
:1000E000B7010008B7010008B7010008B701000810
:1000F000B7010008B7010008B7010008B701000800
:10010000B7010008B7010008B7010008B7010008EF
:10011000B7010008B7010008B7010008B7010008DF
:10012000B7010008B7010008B7010008B7010008CF
:10013000B7010008B7010008B7010008B7010008BF
:10014000B7010008B7010008B7010008B7010008AF
:10015000B7010008B7010008B7010008B70100089F
:10016000B7010008B7010008B7010008B70100088F
:10017000B7010008B7010008B7010008000000003F
:10018000B7010008B7010008DFF80CD000F090F8C4
:100190000048004759150008A80400200648804779
:1001A00006480047FEE7FEE7FEE7FEE7FEE7FEE75C
:1001B000FEE7FEE7FEE7FEE73514000889010008C8
:1001C0002DE9F05F0546002092469B46884606468C
:1001D000814640241BE0284641464746224600F01F
:1001E00057F853465A46C01A914110D31146184643
:1001F000224600F03EF82D1A67EB01084F462246D2
:100200000120002100F035F817EB00094E41201EB7
:10021000A4F10104DFDC484631462A464346BDE8E6
:10022000F09FD2B201E000F8012B491EFBD27047CB
:100230000022F6E710B513460A4604461946FFF7B2
:10024000F0FF204610BD30B50B46014600202022AD
:10025000012409E021FA02F59D4205D303FA02F5D3
:10026000491B04FA02F52844151EA2F10102F1DC33
:1002700030BD202A04DB203A00FA02F1002070474A
:100280009140C2F1200320FA03F3194390407047D4
:10029000202A04DB203A21FA02F00021704721FADB
:1002A00002F3D040C2F12002914008431946704742
:1002B0001CB509480090094801900546009C06E0DD
:1002C000E06840F0010394E8070098471034AC421E
:1002D000F6D3FFF75DFF0000E018000800190008E2
:1002E000FEE700007047000070B581B00022009268
:1002F00090F83C20012A03D1022001B070BD00BF5C
:10030000D1F800E001221FFA8EFC4FEA4C0380F87E
:100310003C200EEB4E0213FA8EF31024BEF1090FAF
:1003200088BFA3F11E0288BF0C24036807251E594D
:10033000954026EA05051D518D681E5905FA02F201
:1003400032431A514968062906D801EB81014A1F38
:10035000194651F8345F0EE00C2901EB810105D8F4
:10036000A1F12302194651F8305F04E0A1F14102E6
:10037000194651F82C5F1F24944025EA04040C60B0
:100380000CFA02F20C6842F2043CC4F2010C224363
:10039000ACF54174A3420A603ED1BEF1120F07D101
:1003A000DCF8001041F48001CCF8001034E000BF0C
:1003B0002EF0010110292FD1DCF80010BEF1100F32
:1003C00041F40001CCF8001026D140F20C01C2F239
:1003D000000109684DF68362C4F21B32A1FB0212D0
:1003E000910C01EB8101490000910099A1B10099A4
:1003F00001390091009979B1009901390091009972
:1004000051B1009901390091009929B10099013940
:10041000009100990029EAD1002180F83C100020C9
:1004200001B070BD0068C06C70470000002804BFB8
:100430000120704710B5016C00293DD0016CC90640
:1004400045D4016C41F202129143023142F204326E
:100450000164C4F20102116821F440311160136893
:1004600090E812102343D0F810E013604A6801248A
:1004700022F480724A604A68C0F6007442EA0E2292
:100480004A604A6822F040724A604A6842EA0C02B6
:100490004A608A6822F400628A60C2688B681A43E4
:1004A0008A60826A8B68A24223F070638B608B68DB
:1004B00010D123F0405216E0044600F065F82046C3
:1004C0000021616484F83C10016CC906B9D5012192
:1004D00053E000BF1A438A608A6822F040528A6063
:1004E000C26A8B681A438A608A6822F002028A60B4
:1004F0008A68037E90F8204042EA43028A604A6894
:1005000084B142F400624A604A684EF2000322F469
:1005100060424A60426ACFF6FF734C6803EB423296
:10052000224301E022F400624A60CA6A40F2000CF1
:1005300022F47002CA62C3694269CFF6F07CCC6AC9
:100540000CEB03532343CB628B6823F400738B6063
:1005500090F830308C6844EA43238B608B6823F436
:1005600080638B608B6843EA82228A600021416449
:10057000026C012363F301020264002280F83C2034
:10058000BDE810400846704780B586B042F20001D1
:100590000068C4F20101002288420592CDE90322DD
:1005A0000292019202D006B080BD00BF43F6300037
:1005B0000092C4F20200436943F4807343614369CB
:1005C00003F480730093009B0092036843F00403DC
:1005D0000360006800F00400009000980220019081
:1005E0000320CDE9020201F5684001A900F044F9B9
:1005F00006B080BD70B5044600680D46826852059D
:1006000044BF80685FEAC05038D400F00BFA21681C
:100610000A68920749D40646681C3CD0DDB90868D0
:10062000800721D5086880073FD4086880071BD55C
:100630000868800739D40868800715D508688007DE
:1006400033D4086880070FD508688007E7D52CE009
:100650000868800729D400F0E5F9801B2168A842CA
:10066000F6D908688007F3D4206C40F004002064B9
:10067000002084F83C00032070BD00BF206C40F0D7
:1006800020002064002084F83C00012070BD00BFE1
:100690000868800709D40868800706D408688007BE
:1006A0005CBF08685FEA8070F2D56FF012000860E6
:1006B000206C40F400702064886810F0405F01D026
:1006C000002070BD207E0028FAD1C86A10F4700F97
:1006D00002D088684005F3D4206C20F48070206438
:1006E000206CC004ECD4206C40F001002064002099
:1006F00070BD000010B581B00021009190F83C1051
:10070000012903D1022001B010BD00BF04680121FE
:1007100080F83C10214651F8083FDB0729D10B68CF
:100720004DF6836243F001030B6040F20C03C2F20A
:1007300000031B68C4F21B32A3FB02239A0C02EBDA
:1007400042020092009AA2B1009A013A0092009AE5
:100750007AB1009A013A0092009A52B1009A013A95
:100760000092009A2AB1009A013A0092009A002A57
:10077000EAD10A68036CD2070CD143F0100101647E
:1007800000F1440101200A6810430860002001B014
:1007900010BD00BF40F2017223EA020202F580722E
:1007A00002646268520504D5026C012363F30D32C2
:1007B0000264026C4FF0000E0023D20444BF426C6E
:1007C00022F0060342F2043C436480F83CE06FF000
:1007D0002200C4F2010C2060DCF80000C0060DD03D
:1007E000ACF5417084422BD14FF60450CFF6FF7028
:1007F0005CF8000010F0405F22D125E042F20000DA
:10080000C4F20100844217D042F20020C4F2010079
:1008100084420DD042F20010C4F2010084420FD194
:10082000DCF80000C00607D0ACF58270844207D126
:10083000DCF80000C00603D4086810F0405F03D065
:10084000002001B010BD00BF4FF080409BE70000CA
:10085000B0B5044600F0E6F8054640F20400C2F2E6
:1008600000000078611C18BF044400BF00F0DAF8F3
:10087000401BA042FAD3B0BD2DE9F04F83B000F188
:10088000200200F13E4741F60045009207F1FF7754
:10089000C4F2020508224FEAB726A84208BF072281
:1008A00000254FF000084FF00009072E38BF4FEA2F
:1008B000B72201920AE000BF09F1010908F102081C
:1008C000B9F1100F05F1040500F0A2800F680122B4
:1008D00002FA09FE17EA0E0AEED0D1F804C003228C
:1008E0000CF003077E1E02FA08F4012E6FEA040BD7
:1008F00012D88468CE6804EA0B0406FA08F634437A
:100900008460446824EA0E06CCF3001404FA09F467
:100910002643466004E000BF032F01D103271EE0F9
:10092000C6688C6806EA0B0604FA08F42643022F10
:10093000C66014D16FF00302009E02EA590756F810
:1009400007C005F01C040F220B69A2402CEA02022A
:10095000A3401A43F251D1F804C00CF00307026817
:1009600007FA08F302EA0B021A431CF4403F026044
:10097000A2D0002243F644030292C4F202031A6892
:1009800043F6004442F480421A601A68C4F201043B
:1009900002F480420292029A29F003024FF6084CB8
:1009A0002244CFF6FF7C52F80C3005F00C070F26DE
:1009B000BE40B343019E06FA07F73B4342F80C30B2
:1009C000A2684B6842EA0A0743F60C4CDE0258BFA5
:1009D00022EA0A07A760C4F2010CDCF800209E029C
:1009E00042EA0A0758BF22EA0A07CCF80070626898
:1009F0009E0342EA0A0758BF22EA0A076760226894
:100A0000DB0342EA0A0758BF22EA0A07276053E7D6
:100A100003B0BDE8F08F0000002A08BF090481611F
:100A20007047000040F2A400C2F200000068704766
:100A300040F2040040F2A401C2F20000C2F2000140
:100A400000780A68104408607047000080B543F6DB
:100A50000040C4F20200016841F4007101600168C5
:100A600041F480610160016841F4807101600320FC
:100A700000F074F80F2000F005F800F027F80020CF
:100A800080BD000070B540F20406C2F2000640F2DC
:100A90000C013278C2F200014FF47A730968B3FB9B
:100AA000F2F20446B1FBF2F1084600F04FFB0F2CC6
:100AB0004FF0010508D838B94FF0FF302146002229
:100AC000002500F01FF87460284670BD82B0002039
:100AD00043F640010190C4F202014A6842F48042A8
:100AE0004A604A6802F480420192019A00900868C4
:100AF00040F080500860086800F080500090009836
:100B000002B0704710B54EF60C5CCEF2000CDCF86B
:100B10000030C3F3022E8EF00704042C28BF0424F7
:100B2000BEF103034FF0FF3E0EFA04F438BF00237A
:100B3000A14399400EFA03F39A43114300F00F02C8
:100B400000F160430901043A03F56443624400285C
:100B500048BF02F10C03197010BD00004EF60C5195
:100B6000CEF200010A684FF6FF031A4060F30A2232
:100B700042F0806040F0FD7008607047002804BFBC
:100B8000012070472DE9F04143F60808C4F202083D
:100B90000446D8F8F8030D4600F00700814207D953
:100BA00088F8F853D8F8F80300F00700A84277D186
:100BB0002068810717D5410705D5D8F8001041F402
:100BC000E051C8F80010010705D5D8F8001041F42D
:100BD0006041C8F80010D8F80010A26821F0F001B8
:100BE0001143C8F80010C00740D1D8F8F80300F04E
:100BF0000700854207D288F8F853D8F8F80300F0C8
:100C00000700A8424CD12068410707D5D8F800104A
:100C1000E26821F4E0511143C8F80010000708D53C
:100C2000D8F80000216920F4604040EAC100C8F80B
:100C3000000000F07DF8D8F8001041F6C802C1F3BA
:100C40000311C0F60002515C40F20C0220FA01F1DF
:100C500040F20800C2F200000068C2F20002116017
:100C6000FFF710FF0020BDE8F08100BF6068811E23
:100C7000022907D258F8081C89015CBF0120BDE891
:100C8000F08111E0012807D158F8081C89035CBFE6
:100C90000120BDE8F08107E058F8081C890703D45B
:100CA0000120BDE8F08100BFD8F8001021F0030159
:100CB0000843C8F80000FFF7B5FE064641F2883742
:100CC000D8F80000616800F00C00B0EB810F8CD008
:100CD000FFF7A8FE801BB842F2D90320BDE8F081DF
:100CE00040F20C0043F60801C2F20000C4F2020117
:100CF0000068096841F6D802C1F38221C0F60002FB
:100D0000515CC8407047000040F20C0043F60801F7
:100D1000C2F20000C4F202010068096841F6D8027C
:100D2000C1F34231C0F60002515CC8407047000078
:100D300010B543F60404C4F202046168C1F38101F2
:100D400042F20040C0F2F400DFE801F002040A02BF
:100D500010BD00BF47F64000C0F27D1010BD00BFBF
:100D6000206821682368490247F64001C0F27D11DE
:100D700000F03F02C3F388105CBF42F20041C0F2B2
:100D8000F401A1FB00010023FFF71AFA21680222F7
:100D9000C1F3014102EB4101B0FBF1F010BD0000D5
:100DA000002804BF012070472DE9F04182B00446BD
:100DB000007843F60006C007C4F202060CD0B06803
:100DC00000F00C00042840F081803068800303D5D7
:100DD0006068002800F06881207880071BD5B06823
:100DE00010F00C0F09D0B06800F00C00082840F09B
:100DF00087807068400200F183803068800703D5E7
:100E0000E068012840F050813068216920F0F80046
:100E100040EAC10030602078000713D420784007F2
:100E20002AD4A569002D00F03A81B06800F00C00CA
:100E3000082840F0A580012D40F00E81012002B06D
:100E4000BDE8F0816069002800F082800020C4F2D3
:100E500047200121C0F8801EFFF7E4FD054600BFD2
:100E6000706F8007DAD4FFF7DDFD401B0228F7D949
:100E7000032002B0BDE8F081306C5FEAC0080AD4FC
:100E800000200190306C40F080503064306C00F0F5
:100E900080500190019847F20007C4F200073868BB
:100EA000C00547D4386840F480703860FFF7BAFD59
:100EB000054600BF3868C0053CD4FFF7B3FD401BB2
:100EC0000228F7D9032002B0BDE8F081B06800F035
:100ED0000C00082803D1706840023FF576AF6168C6
:100EE0003068B1F5803F07D0B1F5A02F40F09A806F
:100EF00040F480203060306840F4803030609AE008
:100F0000E068002840F20000C4F247205CD00121D4
:100F10000160FFF787FD0546306880073FF574AF35
:100F2000FFF780FD401B0228F6D9032002B0BDE880
:100F3000F08100BFA168306F012905D0052955D186
:100F400040F004003067306F40F00100306756E039
:100F50000020C4F247200021C0F8801EFFF762FD88
:100F6000054600BF706F80077FF558AFFFF75AFD49
:100F7000401B0228F6D9032002B0BDE8F08100BF73
:100F80000027C4F2472700203866FFF74BFD022DEB
:100F900005460DD13068800140F18A80FFF742FD9F
:100FA000401B02284FF00300F4D902B0BDE8F081E5
:100FB0003068800173D5FFF735FD401B02284FF0E4
:100FC0000300F5D9F1E700BF00210160FFF72AFD1A
:100FD000054600BF306880077FF51DAFFFF722FD93
:100FE000401B02284FF00300F4D9DEE720F0010097
:100FF0003067306F002920F0040030677AD0FFF7A7
:1010000011FD054641F28837306F800700F184807A
:10101000FFF708FD401BB842F6D9032002B0BDE837
:10102000F08100BF20F4803030603068002920F467
:10103000802030607AD0FFF7F5FC054630688003E9
:101040003FF5CAAEFFF7EEFC401B6428F6D903203B
:1010500002B0BDE8F08100BF7068E16900F4800271
:101060008A4221D1216A00F03F028A421CD147F610
:10107000C071626A0140B1EB821F15D1A16A4FF6BF
:10108000FF73C903994300F44032A1F580318A42CD
:101090000AD1E16A00F07060B0EB016F04D100206A
:1010A00002B0BDE8F08100BF012002B0BDE8F081D0
:1010B00004F11C052FCD084340EA8210D9034FF6F6
:1010C000FF729143A1F5803140EA056008437060EA
:1010D00001203866FFF7A6FC044600BF3068800197
:1010E000DDD4FFF79FFC001B02284FF00300F5D969
:1010F0005BE700BFFFF796FC054641F2883700BF6B
:10110000306F800708D5FFF78DFC401BB8424FF0C9
:101110000300F5D949E700BFB8F1000F3FF581AEF4
:10112000306C20F0805030647BE600BFFFF77AFC23
:10113000054600BF306880037FF54EAEFFF772FCB6
:10114000401B64284FF00300F4D92EE7411E002015
:10115000B0EB116F1CBF012070474EF21002CEF2AF
:10116000000251604EF62351CEF20001F0230B70C5
:101170000721906011607047002804BF012070476C
:1011800010B5044690F8410028B9002084F84000CA
:10119000204600F021F8242084F841002068C1682E
:1011A00021F40051C160204600F04EF92068016929
:1011B00021F490410161416921F02A014161C16836
:1011C00041F40051C16000202021606484F8411086
:1011D00084F84210606310BD2DE9F04387B045F2FA
:1011E00000050068C4F200050026A8420696CDE975
:1011F00004660396029603D007B0BDE8F08300BFF3
:1012000043F630000196C4F20200016902AC41F4D9
:101210008011016101694FF0020801F48011019110
:101220000199019601684FF0030941F00401016042
:101230000168082701F004010191019901960168F4
:1012400041F0080101600068214600F008000190AB
:1012500001984FF48050029005F5DC30CDE903860B
:10126000CDF814900697FFF707FB0420CDE902089C
:1012700005F5DE302146CDE904690697FFF7FCFA53
:1012800007B0BDE8F08300002DE9F04381B00446CB
:1012900090F84100202809D100294FF0010018BF23
:1012A000002A07D101B0BDE8F08300BF022001B0E1
:1012B000BDE8F0830020606421201D460E4684F8BE
:1012C00041001746FFF7AEFBA784E784A16881467B
:1012D000B1F5805F02D1206900285DD0374600203B
:1012E000E28C2168002A5DD06A1C24D0002D4AD0EF
:1012F000804600BF0868000608D4FFF793FBA0EB08
:101300000900A8427AD82168C868F3E717B117F82E
:10131000010B04E038F8020B00276FF35F204860F0
:10132000E08C0138E084E08C0028E3D13AE000BF93
:101330000A68120609D40A68120606D40A68120658
:101340005CBF0A685FEA0262F2D51FB117F8012B91
:1013500005E000BF30F8022B00276FF35F224A60E0
:10136000E28C013AE284E28C002AE4D11AE000BF68
:1013700030F8022B00276FF35F224A60E28C013ABB
:10138000E284E28C72B10A68120635D5002FEFD0E4
:1013900017F8012BF1E700BF00273046E28C2168E7
:1013A000002AA1D1086840061ED42DB3681C14D1B0
:1013B000086840062AD40868400627D40868400612
:1013C00024D4086840064FF00000F1D50DE000BFBE
:1013D0002068C1680068400618D4FFF723FBA0EB23
:1013E0000900A842F4D909E00020202184F8411026
:1013F00001B0BDE8F08300BFFFF714FB03202021FC
:1014000084F8411001B0BDE8F08300BF0020202126
:1014100084F8411001B0BDE8F0830000FEE7000051
:10142000FEE70000FEE70000704700007047000084
:10143000FFF7FEBA4EF68850CEF20000016841F484
:101440007001016070470000B0B50446006804F107
:1014500008030ECB0569194325F440552A43026160
:101460006269E3691143C268194349F20C639A4304
:101470001143C1604169A26921F4407141F2004306
:10148000114340F48062C4F201039A42416103D1E6
:10149000FFF73AFC02E000BFFFF722FCE1694FF6DC
:1014A0009C7563681922C0F6FF75B1F5004FA0FB6B
:1014B00002011FD15A00DB0FFEF782FE48F21F51D6
:1014C000C5F2EB11A0FB01235A0905F1805302FB81
:1014D0000300322303EBC000A0FB01014FF4F870BE
:1014E00000EA111000EB0210C1F342110844216818
:1014F0008860B0BD9A009B0FFEF762FE48F21F5154
:10150000C5F2EB11A0FB01235A0902FB05003223AF
:1015100003EB0010A0FB0101F02000EA511000EBEA
:101520000210C1F34311084421688860B0BD000077
:10153000FEE7000080B582B0019040F21000C2F2D8
:101540000000043001A901224FF6FF73FFF79CFE53
:10155000019802B080BD000092B043F6300647F219
:101560000005C4F20206C4F20005FFF76FFA06ACEC
:1015700020463021FEF75CFE00270597CDE9037772
:10158000CDE901770097306940F0805030613069D3
:1015900000F08050009000980097286840F4804048
:1015A0002860286800F4804000900098022006908F
:1015B0000120099010200A9020460C97FFF7F0FBBD
:1015C00010B172B6FEE700BF0F20CDE9010701A8F8
:1015D0000021CDE903770597FFF7D0FA10B172B675
:1015E000FEE700BF00270A97CDE90877CDE9067727
:1015F0000197306805F5CE3440F004003060306863
:101600004FF4805100F00400019001980197306878
:10161000002240F008003060306800F008000190BF
:1016200001980197306840F00100306030684FF455
:10163000805600F00100019001982046FFF7ECF978
:101640004FF0010806A920460696CDE907870997BD
:10165000FFF712F940F21006C2F2000645F200014F
:10166000C4F20001304640F8041F4FF4E1310C226F
:10167000C0E90117C0E90377C0E90527C761FFF793
:101680007BFD18B172B600BFFEE700BF40F25C0000
:10169000012205F53041C2F20000C0F60072099740
:1016A000077680F82070C0E90A27C0F81C8080F80F
:1016B0003070C0E90017C0E90277C0E90478FEF78E
:1016C000B5FE18B172B600BFFEE700BF0B20069052
:1016D000012007900020089040F25C00C2F2000058
:1016E00006A9FEF701FE18B172B600BFFEE700BF03
:1016F00040F25C04C2F200040AA500BF2046FEF7D7
:10170000F9FF20463221FEF775FF2046FEF78AFEDC
:10171000308081B2284600F00DF84FF4FA70FFF7E0
:1017200097F8EBE74144432056616C75653A2025F4
:10173000640D0A000FB4054B10B503A9044A0298C2
:1017400000F018F810BC5DF814FB00003515000817
:101750000000002002E008C8121F08C1002AFAD1C8
:1017600070477047002001E001C1121F002AFBD121
:10177000704700002DE9FF4F89B09B4604460025C5
:1017800006E025280BD05A460B999047641C6D1C27
:1017900020780028F5D10DB02846BDE8F08F00274D
:1017A000B8460122474900E0074314F8013F203BB7
:1017B00002FA03F00842F7D120782E2819D114F844
:1017C000010F47F004072A280ED06FF02F0220786F
:1017D000A0F1300109290CD808EB880102EB410186
:1017E00000EB0108641CF2E70A98641C50F8048BB3
:1017F0000A9020780028CED0642808D0692806D026
:1018000075281ED05A460B9990476D1C58E00A99CE
:101810004FF00A0901C90A91002802DA40422D213D
:1018200002E0390504D52B218DF82010012103E0B9
:10183000F90704D02021F7E78A4608AE0DE0002121
:10184000FAE70A994FF00A0901C90A91F7E74946F0
:10185000FEF7F9FC303106F8011D0028F7D1ADEB99
:10186000060000F12009780701D44FF00108C845AF
:1018700002DDA8EB090000E000208046002706E01A
:1018800008A85A46C05D0B9990476D1C7F1C5745B0
:10189000F6DB04E030205A460B9990476D1CB8F1F6
:1018A0000001A8F10108F5DC05E016F8010B5A4625
:1018B0000B9990476D1CB9F10001A9F10109F4DC05
:1018C000641C65E70928010000000000000000001A
:1018D00001020304060708090000000001020304D6
:1018E0000019000800000020100000005417000834
:1018F0001019000810000020980400006417000868
:101900000000000001000000100000000024F400AE
:040000050800018965
:00000001FF
