:020000040800F2
:1000000018070020550200083D190008351900089E
:10001000391900084D0400086D1B0008000000009D
:10002000000000000000000000000000691A000845
:100030005104000800000000411900086D1A000872
:100040006F0200086F0200086F0200086F020008CC
:100050006F0200086F0200086F0200086F020008BC
:100060006F0200086F0200086F0200086F020008AC
:100070006F0200086F0200086F0200086F0200089C
:100080006F0200086F0200086F0200086F0200088C
:100090006F0200086F0200086F0200086F0200087C
:1000A0006F0200086F0200086F0200086F0200086C
:1000B0006F0200086F0200086F0200086F0200085C
:1000C0006F0200086F0200086F0200086F0200084C
:1000D0006F0200086F0200086F0200086F0200083C
:1000E0006F0200086F0200086F0200086F0200082C
:1000F0006F0200086F0200086F0200086F0200081C
:100100006F0200086F0200086F0200086F0200080B
:100110006F0200086F0200086F0200086F020008FB
:100120006F0200086F0200086F0200086F020008EB
:100130006F0200086F0200086F0200086F020008DB
:100140006F0200086F0200086F0200086F020008CB
:100150006F0200086F0200086F0200086F020008BB
:100160006F0200086F0200086F0200086F020008AB
:100170006F0200086F0200086F0200080000000014
:100180006F0200086F02000800F002F800F052F859
:1001900014A696E8000CB244B344DA4501D100F04D
:1001A00049F8BAE80F000FA696E83000A5EB040561
:1001B00004EB0607AAEB0704A7F101074FEA1515A0
:1001C0004FEA3414A4F10104AC4201D300F032F838
:1001D00013F0010F18BFFB1A43F0010300F001F800
:1001E000DBE71847DC1B0000FC1B0000103A24BFB3
:1001F00078C878C1FAD8520724BF30C830C144BF8C
:1002000004680C6070470000704700000023002461
:1002100000250026103A28BF78C1FBD8520728BF16
:1002200030C148BF0B6070471FB501F0B0FD1FBD66
:1002300010B510BD00F0D0F81146FFF7F5FF01F042
:1002400097FC00F0EEF803B4FFF7F2FF03BC00F0F8
:10025000F5F800000948804709480047FEE7FEE737
:10026000FEE7FEE7FEE7FEE7FEE7FEE7FEE7FEE766
:1002700004480549054A064B70470000711A0008FA
:100280008901000818010020180700201803002029
:100290001803002053EA020C00F069802DE9F04BAE
:1002A0004FF00006002B1FBFB3FA83F503FA05F4E5
:1002B00024FA05F65E4012BF1643B2FA82F502FA3E
:1002C00005F4C5F120051EBF22FA05FC44EA0C0422
:1002D000203556EA044C4FEA144418BF641C4FF012
:1002E00000084FF00009904271EB030C39D300294C
:1002F00019BFB1FA81F701FA07F6B0FA80F700FAF0
:1003000007F6C7F120071EBF20FA07FC46EA0C06D5
:100310002037B6FBF4FCA7EB0507103F07F01F0BD7
:10032000CBF120062CFA06F60CFA0BFB44BFB346C1
:100330000026202FA4BF5E464FF0000B5BEA060CA0
:1003400008BF4FF0010B19EB0B0948EB0608ABFB9C
:10035000027C06FB02CC0BFB03CCC01B71EB0C0137
:10036000C1E70B46024641464846BDE8F08B13B54F
:10037000084318BF4FF0FF300146AFF30080BDE8DF
:100380001C4070474FF0000200B513469446964655
:10039000203922BFA0E80C50A0E80C50B1F1200198
:1003A000BFF4F7AF090728BFA0E80C5048BF0CC046
:1003B0005DF804EB890028BF40F8042B08BF7047A4
:1003C00048BF20F8022B11F0804F18BF00F8012B16
:1003D0007047704770477047754600F02BF8AE467F
:1003E00005006946534620F00700854618B020B541
:1003F000FFF73EFFBDE820404FF000064FF000073A
:100400004FF000084FF0000BAC46ACE8C009ACE878
:10041000C009ACE8C009ACE8C00921F007018D466D
:10042000704710B50446AFF300802046BDE8104089
:10043000FFF709BF0048704710000020014918204D
:10044000ABBEFEE72600020070470000FEE700009A
:1004500070470000B0B5044600F0E6F8054640F2EB
:100460000000C2F200000078611C18BF044400BF05
:1004700000F0DAF8401BA042FAD3B0BD2DE9F04FEE
:1004800083B000F1200200F13E4741F600450092A2
:1004900007F1FF77C4F2020508224FEAB726A84207
:1004A00008BF072200254FF000084FF00009072E73
:1004B00038BF4FEAB72201920AE000BF09F10109F3
:1004C00008F10208B9F1100F05F1040500F0A2804F
:1004D0000F68012202FA09FE17EA0E0AEED0D1F8DF
:1004E00004C003220CF003077E1E02FA08F4012E5A
:1004F0006FEA040B12D88468CE6804EA0B0406FA8B
:1005000008F634438460446824EA0E06CCF30014F1
:1005100004FA09F42643466004E000BF032F01D12A
:1005200003271EE0C6688C6806EA0B0604FA08F486
:100530002643022FC66014D16FF00302009E02EA28
:10054000590756F807C005F01C040F220B69A2409A
:100550002CEA0202A3401A43F251D1F804C00CF075
:100560000307026807FA08F302EA0B021A431CF4B5
:10057000403F0260A2D0002243F644030292C4F23C
:1005800002031A6843F6004442F480421A601A6873
:10059000C4F2010402F480420292029A29F003029A
:1005A0004FF6084C2244CFF6FF7C52F80C3005F091
:1005B0000C070F26BE40B343019E06FA07F73B43E4
:1005C00042F80C30A2684B6842EA0A0743F60C4C2A
:1005D000DE0258BF22EA0A07A760C4F2010CDCF869
:1005E00000209E0242EA0A0758BF22EA0A07CCF816
:1005F000007062689E0342EA0A0758BF22EA0A07AF
:1006000067602268DB0342EA0A0758BF22EA0A074A
:10061000276053E703B0BDE8F08F0000002A08BF51
:10062000090481617047000040F21010C2F200001E
:100630000068704740F2000040F21011C2F2000062
:10064000C2F2000100780A68104408607047000098
:1006500080B543F60040C4F20200016841F4007125
:100660000160016841F480610160016841F48071BA
:100670000160032000F074F80F2000F005F800F08E
:1006800027F8002080BD000070B540F20006C2F2DD
:10069000000640F208013278C2F200014FF47A738A
:1006A0000968B3FBF2F20446B1FBF2F1084600F030
:1006B000D9FF0F2C4FF0010508D838B94FF0FF30A3
:1006C00021460022002500F01FF87460284670BD06
:1006D00082B0002043F640010190C4F202014A6852
:1006E00042F480424A604A6802F480420192019AD0
:1006F0000090086840F080500860086800F0805062
:100700000090009802B0704710B54EF60C5CCEF227
:10071000000CDCF80030C3F3022E8EF00704042C2A
:1007200028BF0424BEF103034FF0FF3E0EFA04F489
:1007300038BF0023A14399400EFA03F39A431143B3
:1007400000F00F0200F160430901043A03F564432D
:100750006244002848BF02F10C03197010BD00006C
:100760004EF60C51CEF200010A684FF6FF031A4014
:1007700060F30A2242F0806040F0FD70086070472C
:10078000002804BF012070472DE9F04143F6080816
:10079000C4F202080446D8F8F8030D4600F007003A
:1007A000814207D988F8F853D8F8F80300F0070019
:1007B000A84277D12068810717D5410705D5D8F819
:1007C000001041F4E051C8F80010010705D5D8F831
:1007D000001041F46041C8F80010D8F80010A26879
:1007E00021F0F0011143C8F80010C00740D1D8F83B
:1007F000F80300F00700854207D288F8F853D8F8CC
:10080000F80300F00700A8424CD12068410707D543
:10081000D8F80010E26821F4E0511143C8F8001044
:10082000000708D5D8F80000216920F4604040EAAC
:10083000C100C8F8000000F07DF8D8F8001041F6BB
:10084000A852C1F30311C0F60002515C40F2080245
:1008500020FA01F140F20400C2F200000068C2F286
:1008600000021160FFF710FF0020BDE8F08100BF1B
:100870006068811E022907D258F8081C89015CBFF4
:100880000120BDE8F08111E0012807D158F8081CCB
:1008900089035CBF0120BDE8F08107E058F8081C1F
:1008A000890703D40120BDE8F08100BFD8F800100B
:1008B00021F003010843C8F80000FFF7B5FE064623
:1008C00041F28837D8F80000616800F00C00B0EB06
:1008D000810F8CD0FFF7A8FE801BB842F2D903200D
:1008E000BDE8F08140F2080043F60801C2F20000C2
:1008F000C4F202010068096841F6B852C1F38221CE
:10090000C0F60002515CC8407047000040F2080089
:1009100043F60801C2F20000C4F20201006809684F
:1009200041F6B852C1F34231C0F60002515CC840F2
:100930007047000010B543F60404C4F20204616875
:10094000C1F3810142F20040C0F2F400DFE801F09F
:1009500002040A0210BD00BF47F64000C0F27D103D
:1009600010BD00BF206821682368490247F6400196
:10097000C0F27D1100F03F02C3F388105CBF42F269
:100980000041C0F2F401A1FB00010023FFF782FC4B
:1009900021680222C1F3014102EB4101B0FBF1F0F9
:1009A00010BD0000002804BF012070472DE9F04170
:1009B00082B00446007843F60006C007C4F202067F
:1009C0000CD0B06800F00C00042840F08180306842
:1009D000800303D56068002800F0688120788007D4
:1009E0001BD5B06810F00C0F09D0B06800F00C00F7
:1009F000082840F087807068400200F183803068EA
:100A0000800703D5E068012840F0508130682169F3
:100A100020F0F80040EAC10030602078000713D4CD
:100A2000207840072AD4A569002D00F03A81B068EB
:100A300000F00C00082840F0A580012D40F00E8148
:100A4000012002B0BDE8F0816069002800F08280DA
:100A50000020C4F247200121C0F8801EFFF7E4FD0A
:100A6000054600BF706F8007DAD4FFF7DDFD401B3D
:100A70000228F7D9032002B0BDE8F081306C5FEAAC
:100A8000C0080AD400200190306C40F080503064DF
:100A9000306C00F080500190019847F20007C4F2DA
:100AA00000073868C00547D4386840F48070386063
:100AB000FFF7BAFD054600BF3868C0053CD4FFF714
:100AC000B3FD401B0228F7D9032002B0BDE8F08136
:100AD000B06800F00C00082803D1706840023FF5B0
:100AE00076AF61683068B1F5803F07D0B1F5A02FCF
:100AF00040F09A8040F480203060306840F48030CC
:100B000030609AE0E068002840F20000C4F247201C
:100B10005CD001210160FFF787FD05463068800742
:100B20003FF574AFFFF780FD401B0228F6D9032084
:100B300002B0BDE8F08100BFA168306F012905D087
:100B4000052955D140F004003067306F40F00100B6
:100B5000306756E00020C4F247200021C0F8801E14
:100B6000FFF762FD054600BF706F80077FF558AF45
:100B7000FFF75AFD401B0228F6D9032002B0BDE85A
:100B8000F08100BF0027C4F2472700203866FFF736
:100B90004BFD022D05460DD13068800140F18A8061
:100BA000FFF742FD401B02284FF00300F4D902B0CA
:100BB000BDE8F0813068800173D5FFF735FD401B3B
:100BC00002284FF00300F5D9F1E700BF00210160D2
:100BD000FFF72AFD054600BF306880077FF51DAF8F
:100BE000FFF722FD401B02284FF00300F4D9DEE797
:100BF00020F001003067306F002920F004003067DA
:100C00007AD0FFF711FD054641F28837306F800733
:100C100000F18480FFF708FD401BB842F6D903209D
:100C200002B0BDE8F08100BF20F480303060306851
:100C3000002920F4802030607AD0FFF7F5FC0546CB
:100C4000306880033FF5CAAEFFF7EEFC401B642816
:100C5000F6D9032002B0BDE8F08100BF7068E169F9
:100C600000F480028A4221D1216A00F03F028A42C8
:100C70001CD147F6C071626A0140B1EB821F15D1E9
:100C8000A16A4FF6FF73C903994300F44032A1F5FE
:100C900080318A420AD1E16A00F07060B0EB016FE6
:100CA00004D1002002B0BDE8F08100BF012002B0F5
:100CB000BDE8F08104F11C052FCD084340EA821005
:100CC000D9034FF6FF729143A1F5803140EA0560E8
:100CD0000843706001203866FFF7A6FC044600BF99
:100CE00030688001DDD4FFF79FFC001B02284FF025
:100CF0000300F5D95BE700BFFFF796FC054641F21C
:100D0000883700BF306F800708D5FFF78DFC401B88
:100D1000B8424FF00300F5D949E700BFB8F1000F22
:100D20003FF581AE306C20F0805030647BE600BF30
:100D3000FFF77AFC054600BF306880037FF54EAEB2
:100D4000FFF772FC401B64284FF00300F4D92EE734
:100D500070B528B1416A29B100210161142106E072
:100D6000012070BD4168B1F5827F02D01C210022B4
:100D700042500026866290F8511029B980F85060E0
:100D8000054600F03DF82846022180F8511090E811
:100D90002E0002F482720C6803F4044324F0400431
:100DA0000C601A4405F4006305691A4405F0020357
:100DB00045691A4405F001038569C4691A4405F4BC
:100DC00000731A4404F03803046A1A4404F08003E0
:100DD000846A1A4304F400531A430A60436A0422E3
:100DE00002EA154203F010031A444A60CA6922F469
:100DF0000062CA610121466580F85110304670BD1D
:100E00002DE9F04387B043F600050068C4F2000501
:100E10000026A8420696CDE904660396029603D002
:100E200007B0BDE8F08300BF43F630000196C4F27E
:100E30000200016902AC41F48041016101694FF097
:100E4000020801F4804101910199019601684FF077
:100E5000030941F0040101600168052701F0040164
:100E6000019101990196016841F002010160006859
:100E7000214600F00200019001980C20029005F537
:100E8000E830CDE90386CDF814900697FFF7F6FA1F
:100E90004FF48060CDE9020805F5E6302146CDE942
:100EA00004690697FFF7EAFA07B0BDE8F08300008F
:100EB0002DE9F04182B0044690F8510001281AD182
:100EC00000294FF0010018BF002A03D102B0BDE88D
:100ED000F08100BF60681D461746B0F5827F03D1E0
:100EE000A068002800F0BC800E46FFF79DFB94F838
:100EF0005010012904D1022002B0BDE8F08100BFEA
:100F00008046012084F850000420002184F851001C
:100F10006165A663A787E7872163A186E186A2684A
:100F20002068B2F5004F2164616437D0016849063A
:100F30003FD5E168E08F002943D000287AD0681CB3
:100F40000BD11AE0C068A16B21F8020BA163E08FFE
:100F50000138E087E08F00286CD020688168C907DD
:100F6000F0D1FFF761FBA0EB0800A842F2D342E00A
:100F7000FFF75AFBE08F00285CD020688168C90722
:100F8000F6D0C068A16B21F8020BA163E08F013895
:100F9000E087E08F0028F0D14CE000BF016821F02D
:100FA00040010160016821F4804101600168490647
:100FB000BFD4016841F040010160E168E08F002981
:100FC000BBD1B8B3681C0CD124E000BF007BA16B7F
:100FD0000870A06B0130A063E08F0138E087E08FDC
:100FE00040B320688168C907F0D1FFF71DFBA0EB73
:100FF0000800A842F3D3012084F85100002084F8AF
:101000005000032002B0BDE8F08100BFFFF70CFBE9
:10101000E08F78B120688168C907F7D0007BA16BA9
:101020000870A06B0130A063E08F0138E087E08F8B
:101030000028EFD16068B0F5827F0ED1A068B0F5CE
:10104000004F02D0B0F5806F16D12168B0F5806FE7
:101050000A6822F040020A600ED1204601210DE00C
:10106000042084F8510020460A463B46009500F0D3
:1010700059F902B0BDE8F0812046802100222B46BC
:10108000CDF8008000F05EFC28B1606D40F02000DB
:10109000606520206065012084F85100002084F8FC
:1010A0005000606D002818BF012002B0BDE8F0813B
:1010B0002DE9F04184B01D4616460F460446FFF761
:1010C000B3FA94F8511001290ED18046002F4FF049
:1010D000010018BF002E03D104B0BDE8F08100BFAD
:1010E00094F85000012803D1022004B0BDE8F0813B
:1010F000012084F850000320002184F8510061652C
:101100002763A686E686A163A187E187A06821649C
:10111000B0F5004F2068616407D1016821F04001FB
:101120000160016841F4804101600168490603D40F
:10113000016841F0400101606168731EE268B1FA24
:1011400081F1B3FA83F349095B09B2F5006F41EA13
:10115000030139D131B137F8021BC1602763E08E3A
:101160000138E086E08E002870D0681C0BD11AE0B0
:10117000216B31F8022BC2602163E08E0138E086DA
:10118000E08E002862D0206881688907F0D4FFF7DC
:101190004BFAA0EB0800A842F2D338E0FFF744FA7C
:1011A000E08E002852D0206881688907F6D5216B2F
:1011B00031F8022BC2602163E08E0138E086E08EB8
:1011C0000028F0D142E000BF39B139780173206BBB
:1011D00001302063E08E0138E086E08EB0B3681CF9
:1011E0000BD123E0216B09780173206B0130206360
:1011F000E08E0138E086E08E40B320688168890780
:10120000F0D4FFF711FAA0EB0800A842F3D30120B5
:1012100084F85100002084F85000032004B0BDE899
:10122000F08100BFFFF700FAE08E78B12068816896
:101230008907F7D5216B09780173206B0130206392
:10124000E08E0138E086E08E0028EFD120460221B2
:1012500001222B46CDF8008000F074FBE0B1606DF8
:1012600040F02000606520206065A06838B900204B
:1012700002902068C1680291806802900298012063
:1012800084F85100002084F85000606D002818BFD9
:10129000012004B0BDE8F08140F20800C2F2000075
:1012A000006849F68171C1F25E61A0FB0101480D41
:1012B0004FF47A71484303906068B0F5827F0BD198
:1012C0002046802100222B46CDF8008000F03AFB1A
:1012D0000028C4D1C9E700BF03980028C5D00398EF
:1012E00001380390206881680906BED5039900295A
:1012F000BBD003990139039181680906B5D50399DB
:101300000029B2D003990139039181680906ACD54F
:1013100003990029A9D00399013903918068000637
:10132000DAD4A2E72DE9F04383B01E4615460F46F6
:101330000446FFF779F994F851108146012909D143
:10134000002F4FF0010018BF002D0FD103B0BDE8F2
:10135000F08300BF6068B0F5827F0DD104294FF0A3
:101360000200F3D1A1680029EAD0EFE7002EEDD00A
:1013700094F85000012803D1022003B0BDE8F083A7
:10138000012084F8500094F85100002104281CBF6B
:10139000052084F851006165A563E687A687276369
:1013A000E6862068A686216461640168490603D444
:1013B000016841F0400101606168731EE268B1FAA2
:1013C00081F1B3FA83F3DDF8288049095B09B2F5AE
:1013D000006F41EA030165D131B137F8021BC160EA
:1013E0002763E08E0138E086012518F1010032D133
:1013F00002E000BFFFF718F9E08E18B9E08F00286F
:1014000000F0B8802068816889070CD5E18E51B161
:10141000012D08D1216B002531F8022BC260216318
:10142000E18E0139E1868168C907E3D0E18F0029A7
:10143000E0D0C068A16B012521F8020BA163E08F09
:101440000138E087D6E700BFFFF7EEF8A0EB090010
:10145000404580F0A580E08E18B9E08F002800F0AC
:1014600089802068816889070CD5E18E51B1012DF2
:1014700008D1216B002531F8022BC2602163E18E77
:101480000139E1868168C907DED0E18F0029DBD010
:10149000C068A16B012521F8020BA163E08F013820
:1014A000E087D1E739B139780173206B01302063CF
:1014B000E08E0138E086012518F1010032D101E00B
:1014C000FFF7B2F8E08E10B9E08F002852D0206804
:1014D000816889070ED5E18E61B1012D0AD1216B9A
:1014E000002509780173216B206801312163E18EA9
:1014F0000139E1868168C907E2D0E18F0029DFD098
:10150000C068A16B01250870A06B0130A063E08F5B
:101510000138E087D4E700BFFFF786F8A0EB0900A9
:1015200040453DD2E08E08B9E08F18B3206881684D
:1015300089070ED5E18E61B1012D0AD1216B0025FD
:1015400009780173216B206801312163E18E013933
:10155000E1868168C907DFD0E18F0029DCD0C0684F
:10156000A16B01250870A06B0130A063E08F0138EA
:10157000E087D1E72046022101224346CDF80090C2
:1015800000F0E0F9B0B1606D40F02000606520200F
:101590006065002084F85000012003B0BDE8F083AE
:1015A000012084F85100002084F85000032003B08B
:1015B000BDE8F08340F20800C2F20000006849F67E
:1015C0008171C1F25E61A0FB0101480D4FF47A7197
:1015D000484302906068B0F5827F0BD1204680219D
:1015E00000224346CDF8009000F0ACF90028CAD1A3
:1015F00021E000BF0298F0B1029801380290206803
:101600008168090617D50299A9B102990139029199
:10161000816809060FD5029969B1029901390291D1
:101620008168090607D5029929B102990139029109
:1016300080680006DED4A06838B9002001902068D8
:10164000C1680191806801900198012084F85100DF
:10165000002084F85000606D002818BF012003B0FE
:10166000BDE8F083411E0020B0EB116F1CBF0120CC
:1016700070474EF21002CEF2000251604EF6235136
:10168000CEF20001F0230B700721906011607047CB
:10169000002804BF0120704710B5044690F84100AF
:1016A00028B9002084F84000204600F021F82420CA
:1016B00084F841002068C16821F40051C1602046CF
:1016C00000F0E0F92068016921F49041016141696D
:1016D00021F02A014161C16841F40051C16000203C
:1016E0002021606484F8411084F84210606310BDCA
:1016F0002DE9F04387B045F200050068C4F200050B
:101700000026A8420696CDE904660396029603D009
:1017100007B0BDE8F08300BF43F630000196C4F285
:101720000200016902AC41F48011016101694FF0CE
:10173000020801F4801101910199019601684FF0AE
:10174000030941F0040101600168082701F0040168
:10175000019101990196016841F00801016000685A
:10176000214600F00800019001984FF4805002904B
:1017700005F5DC30CDE90386CDF814900697FEF729
:101780007DFE0420CDE9020805F5DE302146CDE9D5
:1017900004690697FEF772FE07B0BDE8F08300000B
:1017A0002DE9F04381B0044690F84100202809D18A
:1017B00000294FF0010018BF002A07D101B0BDE891
:1017C000F08300BF022001B0BDE8F0830020606418
:1017D00021201D460E4684F841001746FEF724FFDF
:1017E000A784E784A1688146B1F5805F02D12069B2
:1017F00000285DD037460020E28C2168002A5DD0A9
:101800006A1C24D0002D4AD0804600BF086800061C
:1018100008D4FEF709FFA0EB0900A8427AD8216896
:10182000C868F3E717B117F8010B04E038F8020BAA
:1018300000276FF35F204860E08C0138E084E08C83
:101840000028E3D13AE000BF0A68120609D40A680A
:10185000120606D40A6812065CBF0A685FEA0262D2
:10186000F2D51FB117F8012B05E000BF30F8022BAD
:1018700000276FF35F224A60E28C013AE284E28C37
:10188000002AE4D11AE000BF30F8022B00276FF3E2
:101890005F224A60E28C013AE284E28C72B10A680B
:1018A000120635D5002FEFD017F8012BF1E700BF56
:1018B00000273046E28C2168002AA1D10868400642
:1018C0001ED42DB3681C14D1086840062AD40868B9
:1018D000400627D40868400624D4086840064FF024
:1018E0000000F1D50DE000BF2068C1680068400627
:1018F00018D4FEF799FEA0EB0900A842F4D909E03C
:101900000020202184F8411001B0BDE8F08300BF21
:10191000FEF78AFE0320202184F8411001B0BDE8C3
:10192000F08300BF0020202184F8411001B0BDE801
:10193000F0830000FEE70000FEE70000FEE7000085
:10194000704700002DE9F04381B0089C9846154689
:101950000E468146FEF768FE201A00EB0804FEF7EB
:1019600063FE40F20801C2F200010968C1F3CB3105
:1019700061430091D9F800108A683240921BB2FA94
:1019800082F25209954203D1002001B0BDE8F083F4
:10199000074618F101000ED130E000BF0098013871
:1019A0000090D9F8000080683040801BB0FA80F0C9
:1019B00040098542E8D0FEF737FEC01BA04227D27F
:1019C00000980028EAD10024EBE700BF8868304087
:1019D000801BB0FA80F040098542D5D0886830403D
:1019E000801BB0FA80F040098542CDD08868304035
:1019F000801BB0FA80F040098542C5D0886830402D
:101A0000801BB0FA80F040098542DFD1BCE700BFFF
:101A1000D9E900014268B1F5827F22F0E00242601C
:101A20000BD1D9F80810B1F5004F02D0B1F5806F95
:101A300003D1016821F040010160D9F82810B1F507
:101A4000005F07D1016821F400510160016841F491
:101A500000510160012089F85100002089F85000F0
:101A6000032001B0BDE8F08370470000FEF7E2BD3F
:101A70004EF68850CEF20000016841F4700101601A
:101A800070470000B0B50446006804F108030ECBAF
:101A90000569194325F440552A4302616269E369E7
:101AA0001143C268194349F20C639A431143C16060
:101AB0004169A26921F4407141F20043114340F4AD
:101AC0008062C4F201039A42416103D1FEF71EFF16
:101AD00002E000BFFEF706FFE1694FF69C75636800
:101AE0001922C0F6FF75B1F5004FA0FB02011FD10E
:101AF0005A00DB0FFEF7CEFB48F21F51C5F2EB1187
:101B0000A0FB01235A0905F1805302FB0300322395
:101B100003EBC000A0FB01014FF4F87000EA1110C4
:101B200000EB0210C1F34211084421688860B0BD87
:101B30009A009B0FFEF7AEFB48F21F51C5F2EB1166
:101B4000A0FB01235A0902FB0500322303EB00101E
:101B5000A0FB0101F02000EA511000EB0210C1F3DC
:101B60004311084421688860B0BD0000FEE7000012
:101B700094B0A32043F6300641F200048DF807002C
:101B80002320C4F20206C4F202048DF80600FEF718
:101B90005FFD08AD28463021FEF7F4FB00270797CC
:101BA000CDE90577CDE903770297306940F08050A1
:101BB0003061306900F080500290029846F20000D7
:101BC0000297CFF6FE70215841F4804121502058F1
:101BD00000F48040029002980220089001200B90AF
:101BE00010200C9028460E97FEF7DCFE10B172B65E
:101BF000FEE700BF0F20CDE9030703A80021CDE9D0
:101C000005770797FEF7BCFD10B172B6FEE700BF7F
:101C100000250C95CDE90A55CDE9085503953068A6
:101C200043F6000840F0100030603068082100F0F2
:101C300010000390039803953068002240F00400E0
:101C400030603068C4F2000800F00400039003988C
:101C500003953068082740F002003060306800F0DB
:101C60000200039003980395306840F0080030604C
:101C7000306800F00800039003982046FEF7CEFC81
:101C80000897012708A92046CDE909750B95FEF7AD
:101C9000F5FB40F27000C2F200004FF482710222A4
:101CA0004FF400732026C0E900810A21C0E90255E3
:101CB000C0E90427C0E90636C0E90855C0E90A5161
:101CC000FFF746F810B172B6FEE700BF40F2C80059
:101CD00008F5C051C2F200000C234FF4E13280E855
:101CE0002600C0E90355C0E90535C561FFF7D0FC02
:101CF00010B172B6FEE700BF40F2700540F2C806B0
:101D00004FF0990BC2F200050DF106080DF10C0918
:101D10000DF1070A08AFC2F2000600BF20460821F5
:101D200000228DF80CB0FEF779FC284641460122CE
:101D30000A23FFF7BDF92846494601220A23FFF787
:101D4000B7F9204608210122FEF768FC2046082149
:101D50000022FEF763FC2846514601220A23FFF7C2
:101D6000A7F92846394601220A23FFF7A1F82046A1
:101D700008210122FEF752FC3046394601220A238F
:101D8000FFF70EFD4FF47A70FEF764FBC6E7F1EE45
:101D9000100A4FF6FF71C0F2C03120EA010040F096
:101DA0004070E1EE100A70470000000000000000E3
:101DB00001020304060708090000000001020304F1
:101DC000E01D00080000002010000000EC010008E9
:101DD000F01D000810000020080700000C02000899
:101DE00001000000100000000024F40000000000CA
:040000050800018965
:00000001FF
